:020000040800F2
:10000000205500205D0200083B4B0008B542000867
:10001000394B0008CD0F0008AD5700080000000064
:100020000000000000000000000000009D0100082A
:100030001F1B000800000000F9010008494E0008DD
:1000400077020008770200087702000877020008AC
:10005000770200087702000877020008770200089C
:1000600077020008770200087702000839170008B5
:100070007702000845170008770200087702000899
:10008000511700087702000877020008770200087D
:10009000F90F0008770200087702000877020008CD
:1000A000770200087702000877020008770200084C
:1000B000194F00087702000877020008770200084D
:1000C000770200087702000877020008770200082C
:1000D000770200087D550008D15500087702000816
:1000E000770200087702000877020008770200080C
:1000F00077020008770200087702000877020008FC
:1001000077020008770200087702000877020008EB
:10011000F951000811520008770200087702000820
:1001200077020008770200085D17000877020008D0
:1001300077020008770200087702000877020008BB
:100140009110000877020008770200087702000883
:100150007702000877020008691700087702000894
:10016000770200087702000877020008770200088B
:1001700077020008770200087702000800000000FC
:100180007702000877020008DFF80CD000F038FB97
:100190000048004791820008205500202C4B196828
:1001A0000868B0E8F04F80F30988BFF36F8F4FF015
:1001B000000080F3118870470000000008480068C4
:1001C000006880F308884FF0000080F3148862B65E
:1001D00061B6BFF34F8FBFF36F8F00DF00BF00BF6B
:1001E00008ED00E0DFF80C00016841F470010160E7
:1001F000704700BF88ED00E0EFF30980BFF36F8F19
:10020000134B1A681EF0100F08BF20ED108A20E96A
:10021000F04F106009B44FF0500080F31188BFF325
:100220004F8FBFF36F8F0BF08DF94FF0000080F30D
:10023000118809BC19680868B0E8F04F1EF0100F6B
:1002400008BFB0EC108A80F30988BFF36F8F704746
:1002500050060020EFF305807047000006488047F5
:1002600006480047FEE7FEE7FEE7FEE7FEE7FEE79B
:10027000FEE7FEE7FEE7FEE7FD4E00088901000805
:100280002DE9F05F0546002092469B4688460646CB
:10029000814640241BE0284641464746224600F05E
:1002A000F4F853465A46C01A914110D311461846E5
:1002B000224600F0DBF82D1A67EB01084F46224674
:1002C0000120002100F0D2F817EB00094E41201E5A
:1002D000A4F10104DFDC484631462A464346BDE826
:1002E000F09F40EA01039B0703D009E008C9121FF1
:1002F00008C0042AFAD203E011F8013B00F8013BE0
:10030000521EF9D27047D2B201E000F8012B491E0B
:10031000FBD270470022F6E710B513460A460446A2
:100320001946FFF7F0FF204610BD2DE9FE4F81EA88
:10033000030404F0004421F0004100944FF0000B4E
:1003400023F0004350EA01045ED052EA03045BD07C
:10035000C3F30A54C1F30A552C44A4F2F3340194B4
:10036000A0FB0254C1F3130141F48011C3F3130342
:1003700043F4801301FB024400FB034E840A970AF6
:1003800044EA815447EA8357A4FB076802958D0A23
:1003900005FB07854FEA932C04FB0C542705029DAF
:1003A0004FEA065847EA1637B5EB08056EEB070C1F
:1003B000870E920E47EA811742EA8312A7FB0201D9
:1003C000B6EB0B0164EB00042B0D43EA0C335E1813
:1003D00044EB1C50DA465146E7FB0201C5F3130417
:1003E0004FEA0B3343EA14534FEA0432019C43EAC9
:1003F0000603A4F10C040294009CCDE900B400F0C3
:100400009AF803B0BDE8F08F00200146F9E700F04C
:10041000004230F000400AD0C10D01F56071C0F318
:10042000160042EA0151C2084007114370470020FC
:100430000146704701F0004330B421F0004150EA1A
:10044000010206D00A0DA2F56072C1F31301002A61
:1004500002DC30BC00207047440F44EAC104C100F4
:10046000E01830BC00EBC25000F01FB8202A04DBBB
:10047000203A00FA02F1002070479140C2F12003B7
:1004800020FA03F3194390407047202A04DB203AF6
:1004900021FA02F00021704721FA02F3D040C2F1A4
:1004A000200291400843194670470029A8BF7047B1
:1004B000401C490008BF20F00100704710B4B0FA9A
:1004C00080FC00FA0CF050EA010404BF10BC704735
:1004D00049B1CCF1200421FA04F411FA0CF118BF4F
:1004E000012121430843A3EB0C01CB1D4FEA00611E
:1004F0004FEA102042BF002010BC704700EBC350F1
:1005000010440029A4BF10BC7047401C490008BF1C
:1005100020F0010010BC704710B5141E73F10004E8
:1005200008DA401C41F1000192185B411A4301D1E5
:1005300020F0010010BD2DE9F04D92469B4611B10F
:10054000B1FA81F202E0B0FA80F220329046FFF771
:100550008DFF04460F4640EA0A0041EA0B0153466C
:100560005A46084313D0114653EA010019D0C8F186
:1005700040025046FFF789FF05460E465046594651
:100580004246FFF773FF084305D0012004E02046F0
:100590003946BDE8F08D0020054346EAE0762C435D
:1005A00037430A986305E40AA0EB08000022FD0A1D
:1005B00044EA47540A3002D500200146E9E7010524
:1005C00010196941DDE9084500196941BDE8F04DA0
:1005D000A2E72DE9FE4F804681EA0300C00F0C46DA
:1005E000009021F0004123F00045B8EB0200A94142
:1005F00005D24046214690461C460B46024623F053
:100600000040104347D0270DC7F30A00C3F30A5137
:100610000290401A019040286BDAC3F3130040F4B3
:10062000801B0098924620B10023D2EB030A63EBB3
:100630000B0B01985946C0F140025046FFF716FFD8
:1006400006460D4650465946019A00F0EBF810EB6D
:1006500008006141002487EA115284EAE7731A43D3
:1006600040D0009A62B3019A012A4FEA075215DC82
:10067000001B61EB02014FF0004202EA0752CDE994
:100680000042001C41F5801132462B46FFF753FF14
:1006900003B0BDE8F08F40462146F9E7001B61EB4F
:1006A0000201001C41F5801300185B412018A2F5DF
:1006B000001747EB030140EAD570B6196D4111E010
:1006C0006D084FEA360645EAC0754FEA0752001B2F
:1006D00061EB0201001C41F5801149084FEA30002E
:1006E0000019514132462B4603B0BDE8F04FFFF7E9
:1006F00013BF0098012240000023D0EB020263EBFD
:10070000E073009821464FEAE074B8EB000061EB1B
:100710000401E9E783F000435BE781F0004158E71B
:100720002DE9F04D81EA030404F0004B21F000456F
:1007300014464FF0000A23F0004150EA050220D091
:1007400054EA01021DD0C5F30A570246C5F313034C
:10075000C1F31300C1F30A5640F4801543F480132B
:10076000A7EB0608101BD64608F2FD3873EB050010
:1007700002D308F1010801E092185B41B8F1000FC3
:1007800003DA00200146BDE8F08D00204FF480110F
:10079000064684460EE0171B73EB050705D3121BB4
:1007A00063EB050306434CEA010C49084FEA3000AD
:1007B00092185B4150EA0107EDD152EA030012D0D2
:1007C00082EA040083EA0501084305D0101BAB410F
:1007D00006D20122002306E000224FF0004302E08F
:1007E0006FF0010253101AEB06004CEB085110EBAE
:1007F0000A0041EB0B01BDE8F04DFFF78DBE000094
:10080000064C074D06E0E06840F0010394E807005D
:1008100098471034AC42F6D3FFF7BAFC50DD00081D
:1008200070DD0008202A06DBCB17203A41FA02F0DF
:1008300043EAE07306E041FA02F3D040C2F120023D
:1008400091400843194670472DE9F04D00231A46A0
:100850001B1A8A4103DB00200146BDE8F08DC1F37D
:100860000A52C1F3130141F480154FF0000BD10778
:1008700002D100186D41521E0027044640F2FF11BC
:10088000384601EB620A3E468046024600204FF49D
:100890008011FFF7FAFDC2197141BB1846EB010048
:1008A000B4EB030C75EB000C04D3E41A65EB000504
:1008B00017460E46241908F101006D418046342880
:1008C000E3DDF91946EB0600091BA84103D24FF0FE
:1008D000FF32134601E0002213461BEB070046EBF4
:1008E0000A51BDE8F04DFFF717BE70B58C1810F82F
:1008F000015B15F0070301D110F8013B2A1106D165
:1009000010F8012B03E010F8016B01F8016B5B1E7E
:10091000F9D12B0705D40023521E0DD401F8013B59
:10092000FAE710F8013BCB1A921C03E013F8015BC5
:1009300001F8015B521EF9D5A142D8D3002070BD49
:1009400070470000464910B54A6822F440324A60B8
:100950004A6843681A434A6001684A6822F4807210
:100960004A6001684A68036942EA03224A600168F2
:100970004A6822F040724A6001684A6883681A43F4
:100980004A6001688A6822F400628A6001688A68A5
:10099000C3681A438A60816A6FF07062D14201684D
:1009A0008A6822F070628A6001688A680CD0836A63
:1009B0001A438A6001688A6822F040528A6001689E
:1009C0008A68C36A1A4301E022F040528A600168D3
:1009D0008A6822F002028A6001688A68037E42EA1D
:1009E00043028A6090F82010002901684A680FD0FD
:1009F00042F400624A6001684A6822F460424A6038
:100A000001684A68174C436A04EB43331A4301E018
:100A100022F400624A600168CA6A22F47002CA6263
:100A20000168CA6A838B104C04EB03531A43CA62F1
:100A300001688A6822F400728A6001688A6890F806
:100A4000303042EA43228A6001688A6822F4806278
:100A50008A6001688A68406942EA8020886010BD27
:100A60000023014000E0FFFF0000F0FF2DE9F0410E
:100A700016462DED0A8B0F468046B3F90030DDE9AE
:100A8000131000EE103ADDE91152F8EEC00AFE4CE8
:100A9000DDF840C0C4ED0E0ABCF9003000EE103A9B
:100AA000B8EEC00A84ED0F0AB5F90030032593FBB8
:100AB000F5F31BB203EB430300EE103AB8EEC00AA5
:100AC00084ED100AB2F9002000EE102AB8EEC01A28
:100AD00084ED111AB1F9001000EE101AB8EEC00A38
:100AE00084ED120AB0F9000021EE000A01EE900A2E
:100AF000F8EEE11AC4ED131A20EE210AB5EEC00A91
:100B0000F1EE10FA7DD0E14D297B9FEDE18AFDEEFB
:100B1000E00AB0EE480A10EE900A00B207F08AFB35
:100B200084ED0E0AD4ED0F0A297BB0EE480AFDEEE3
:100B3000E00A10EE900A00B207F07CFB84ED0F0A89
:100B4000D4ED100A297BB0EE480AFDEEE00A10EE63
:100B5000900A00B207F06EFB94ED0E1ADFEDCD0A9D
:100B600021EE201A20EE200A84ED0E1A94ED0F1AC1
:100B700021EE201A84ED0F1A84ED100AD4ED110A2B
:100B8000297BB0EE000AFDEEE00A10EE900A00B2FA
:100B900007F064FB84ED110AD4ED120A297BB0EE54
:100BA000000AFDEEE00A10EE900A00B207F056FBD4
:100BB00084ED120AD4ED130A297BB0EE000AFDEE93
:100BC000E00A10EE900A00B207F048FBF0EE400A8F
:100BD000C4ED130A94ED110A94ED121A20EE000AE6
:100BE00001EE010A00EEA00A07F00EFB84ED070AF1
:100BF000D4ED110A60EE802AC4ED112AD4ED120A58
:100C000000E05CE160EE804AB0EE008AC4ED124A7A
:100C1000D4ED130A20EE803A84ED133A94ED040AE1
:100C2000D4ED060AD4ED031A94ED051A20EE202A1D
:100C300001EEC12A22EE084A21EE802A84ED084AFC
:100C400001EE202A22EE085A21EEA12A84ED095A4B
:100C500000EE402A01EE412A00EEA02A84ED0A2A85
:100C600064EE823A43EE453A23EE043A02EEC23A8B
:100C700062EE852AC4ED0B3A44EEC42A84ED0C3AA8
:100C8000C4ED0D2A94ED142A94ED015A03EE852A41
:100C900084ED142A94ED154A03EE054A84ED154AB5
:100CA000D4ED164A42EE854AC4ED164AD4ED0E5AEA
:100CB00094ED005A45EE235A35EE822A84ED0E2A31
:100CC000D4ED0F3A45EE033A33EE843A20EE424A31
:100CD00084ED0F3AD4ED103A01EE434A61EE835AA7
:100CE00045EE223AB0EE615A73EEA42A61EE824AD2
:100CF000C4ED102AC4ED171A41EE224A84ED180AF9
:100D000000EEE24A84ED191AC4ED1A0AD4ED023A53
:100D100040EEC34A40EE625A04EE235AB0EE404A17
:100D200004EEA34A40EE825A84ED035A84ED044A4D
:100D300061EEA21AF0EE414A45EEA34A40EE031AD4
:100D400025EE050AC4ED054A04EE040A41EE421AF6
:100D500004EEA40A41EEA30AC4ED060A00EEA00ABE
:100D600007F052FA84ED070AD4ED030A20EE80BAA8
:100D700084ED03BAD4ED040A60EE808AC4ED048ADF
:100D8000D4ED050A20EE809A84ED059AD4ED060A8A
:100D900060EE809A2BEE0B0AC4ED069A08EEE80A84
:100DA00009EE490A09EEA90A10EE100AFFF72FFB17
:100DB00029EE080A6BEE080A41EC1A0B20EE290A0C
:100DC00000EEA80A10EE100AFFF721FB41EC100B11
:100DD000B0EE4A1AF0EE6A1A05F02EF89FED2EBB1F
:100DE00051EC100B53EC1B2BFFF79FFAFFF722FB84
:100DF000386094ED040AD4ED060A94ED051A20EE4D
:100E0000080A20EE200AD4ED030A60EE880A00EEFC
:100E1000C10A10EE100AFFF7FAFA41EC100B04F0C9
:100E2000EFFC9FED1F1B51EC100B53EC112BFFF748
:100E30007CFAFFF7FFFAC8F8000094ED03CAD4ED7E
:100E4000048AD4ED05AA2CEE0C0A94ED06AA08EE4D
:100E5000A80A0AEEEA0A0AEE4A0A10EE100AFFF79A
:100E6000D6FA28EEAA0A41EC190B0CEE0A0A20EE7B
:100E7000080A10EE100AFFF7CAFA41EC100BB0EEA8
:100E8000491AF0EE691A0FE04C000020D00800204B
:100E90000000FA44728A8E3C0000006066A64C4056
:100EA0000000006066A64CC004F0C6FF53EC1B2B8C
:100EB00051EC100BFFF739FAFFF7BCFA3060002055
:100EC000BDEC0A8BBDE8F0812DE9F04780469146E4
:100ED0000F46122003F000FB0446132003F0FCFA37
:100EE00044EA0026142003F0F7FA0446152003F024
:100EF000F3FA44EA0025162003F0EEFA0446172020
:100F000003F0EAFAA8F8006044EA00203D80A9F85E
:100F10000000BDE8F0872DE9FE4F1546DDE90C9A8B
:100F20000E4607460C221C466946104603F0FAFAA4
:100F3000BDF80080BDF802C0BDF80430BDF8062041
:100F4000BDF80810BDF80A00A4F80080A9F800C098
:100F5000AAF800303A8031802880BDE8FE8F00007A
:100F600038B5194805F0F6FC05F068F9164805F0A3
:100F700029F9044605F062F924BB01208DF8000030
:100F80000146114A684605F073FD05F057F90E4811
:100F900003F02AFE00208DF800000B4A012168466C
:100FA00005F066FD05F04AF9074803F0F3FD02205D
:100FB0008DF80000044A0121684605F059FD0446F9
:100FC00005F03CF9204638BDD0080020FEE70000BF
:100FD00000B58BB0684600F04FF96946054800F04F
:100FE000C9FF0221034800F04FFF024801F0DAFA7E
:100FF0000BB000BDE00D0020014801F0B6B80000C4
:10100000E00D002070B5174CA0F50072013A14D025
:10101000A0F50072023A16D0A0F50072033A19D07A
:10102000B0F5017F1DD104F15400226E05469047B2
:10103000616E2846BDE870400847E268094890475D
:1010400008482169F6E70748A26A1C300546904720
:10105000E16AEEE70348626C383005469047A16CC0
:10106000E7E770BD5802002000B58BB0684600F07D
:1010700003F96946054800F07DFF0221034800F0AE
:1010800003FF024801F08EFA0BB000BD080E0020ED
:10109000014801F06AB80000080E0020704700887F
:1010A00040BA7047408840BA00B27047808840BA62
:1010B00000B270478079704713B5012201A900F092
:1010C0000FF81CBD08B50A0A8DF800208DF8011034
:1010D0000222694600F004F808BD00F001B80000E3
:1010E0002DE9F0410446407815460E4640B10128EE
:1010F00008D00420A0706068401C6060BDE8F081EA
:10110000124F01E0114F24373846E16800F0C1F872
:1011100018B92146384600F05AF8227C00210DE02B
:101120005318082B05D30521A1706168491C616023
:1011300006E0775C0344491C1F71C9B2A942EFD392
:10114000618A82898A42D9D98181D7E7000000204B
:1011500008B50A0E8DF800200A0C8DF801200A0A45
:101160008DF802208DF8031004226946FFF7B8FFBE
:1011700008BD000070B504004FF000051AD170BD25
:101180004FF0000110D0D4F81010002004EB8002C2
:10119000401C5369C0B213610328F7D3E56194F88A
:1011A0002000401E84F82000084600F065F9012860
:1011B00005D0257094F820000028E1D170BD4FF0D3
:1011C00001002070606800F101006060F2E72DE925
:1011D000F04185680F4604464FF00108002635B3FC
:1011E0000FB924E00546286A0028FBD1242007F027
:1011F000C1FA2862F9680160296A788A8881286AB8
:101200000661286A4661296A002081F81880296AE7
:1012100081F81980011D2A6A401CC0B25654082862
:10122000F8D3286A0662286AC461286A1FE024206D
:1012300007F0A0FAA060F9680160A168788A888147
:10124000A0680661A0684661A168002081F8188046
:10125000A16881F81980011DA268401CC0B25654D3
:101260000828F8D3A0680662A068C461A068217B42
:10127000491C2173BDE8F08100210160416081605B
:10128000C160016101224161C0E90612C0E9082183
:101290007047806803E002688A4202D0006A002832
:1012A000F9D17047AFF3008070B50446407840B183
:1012B000012808D00420A0706068401C60600020F5
:1012C00070BD074D01E0064D24352846E168FFF763
:1012D000E0FF18B921462846FFF779FF007E70BD70
:1012E0000000002070B5054690F821000026012876
:1012F0002AD14DB3287B38B3AC6823E007F02AF835
:101300002169411AA089401E00EB4002C2EBC010C7
:10131000B1EBC00F15D3207E012812D195F8200023
:10132000042808D205EB8000046195F82000401CD9
:1013300085F8200004E0022129706868401C68607C
:101340000126246A002CD9D1304670BD00F06CB85B
:1013500010B5124A016891420DD1114B00211C4673
:10136000A3F11C0200F08DFE0D4821461C380068D8
:10137000FFF748FE10BD0B4A9142FBD1084B0021FC
:1013800024331C46A3F11C0200F07BFE04482146D6
:1013900008300068FFF782FE10BD000000640040C6
:1013A000E006002000680040AFF3008070B50446FE
:1013B00040780E4638B1012807D00420A07060683C
:1013C000401C606070BD074D01E0064D2435284685
:1013D000E168FFF75EFF18B921462846FFF7F7FEE0
:1013E000467670BD00000020AFF3008070B5044663
:1013F00040780E4638B1012807D00420A0706068FC
:10140000401C606070BD074D01E0064D2435284644
:10141000E168FFF73EFF18B921462846FFF7D7FEDF
:10142000067670BD0000002010B5044688B0E26862
:101430000092002201200292039208220492627814
:1014400012B1012A05D00AE00A4606AB69460848EF
:1014500003E00A4606AB6946064800F027FDA07087
:10146000002802D06168491C616008B010BD00000E
:10147000E00D0020080E002070B588B004004FF089
:10148000010529D009F082FF20680026009002960D
:101490000820CDE903601249E069884204D106AB17
:1014A000221D69460F4807E00D492431884206D1C4
:1014B00006AB221D69460C4800F0F8FC054606F014
:1014C00049FF2169401A606106F044FF2061607E97
:1014D00000B9267609F07AFF08B0284670BD0000F2
:1014E00000000020E00D0020080E002010B500F0E4
:1014F00004F8BDE8104000F037B800B500F004F87B
:101500005DF804EB00F0CEB803480178034809B158
:10151000012900D10170704737050020E00200204A
:1015200030B50F480F49046862680A6043685A681A
:101530004A60826855688D60C5686868C86001F156
:101540001000C5600460C0E90132103021680160FC
:1015500019684160116881602968C16030BD000070
:10156000B4040020380900202DE9F04100211A4878
:1015700000F082F80221184800F07EF80121164898
:1015800000F07AF80321144800F076F8134F124E59
:101590000024A7F1100500BF57F82400007E50B1C9
:1015A00055F824000021C2699047641C14F0FF0420
:1015B000F2D0BDE8F08104EB4400C0EB441006EB30
:1015C000800090ED1C0ABDEEC00A10EE100A81B238
:1015D00055F82400C269E7E7E4020020480900202A
:1015E0002DE9F0410E462DED028B074600249FEDBC
:1015F0000B8A0CE004EB4400C0EB441007EB8005C1
:10160000284606F0FDFE641C85ED1C8AE4B2B44257
:10161000F0D3BDEC028BBDE8F081000000000000BB
:101620002DE9F041114D00242DED028B26469FED52
:10163000108A104F04EB4400C0EB441005EB80000F
:10164000314680ED1C8A57F82400C2699047641C1B
:10165000E4B2042CEED304210448FFF7C1FFBDEC33
:10166000028BBDE8F041FFF748BF0000E402002014
:10167000000000003809002010B501EB4102C2EB68
:10168000411100EB8104204694EC020A30EE600A1E
:1016900084ED020A09F0EAFC94ED0A0A84ED1C0AC2
:1016A00010BD704713480168B1F9021000EE101A1E
:1016B0001149B8EEC00A81ED010A4268B2F9022070
:1016C00000EE102AB8EEC00A81ED1E0A8268B2F957
:1016D000022000EE102AB8EEC00A81ED3B0AC06875
:1016E000B0F9020000EE100AB8EEC00A81ED580A07
:1016F0007047000058090020E40200200021014842
:1017000000F0EABF300E002010B50A4C2068816856
:101710008847606881688847A06881688847E06872
:101720008168884720698168884760698168BDE869
:1017300010400847C8020020014801F057B80000D7
:1017400044100020014801F051B80000E40F0020CF
:10175000014801F04BB8000064110020014801F07D
:1017600045B80000A4100020014801F03FB8000077
:10177000041100202DE9F04F85680024099E802D7A
:1017800018D0894DC563894D456490F83450012DBA
:1017900015D0012580F8345090F83550012D10D027
:1017A000002180F834100224002180F834102046F3
:1017B000BDE8F08F4FF4807141650120F8E7022009
:1017C000F6E7022580F835500025456505682F6845
:1017D00047F480272F6005682B6103685E6083688B
:1017E000402B03682AD099600168CA60714D704E21
:1017F000704FDFF8BC81DFF8B891DFF8B8A1DFF8EF
:10180000B4B1EA14DFF8A8E1016818363037930262
:10181000A9F148090AF1600A0BF1180BAEF1300E7C
:101820004FF0006C41452DD9A94205D0494503D060
:10183000514501D0B14205D1202220E09A600268D2
:10184000D160D3E759451AD0714518D0594D783534
:10185000A94214D0564D3035A94210D0B9420BD010
:10186000534A183A914207D0524A9032914203D0DB
:101870004F4A4832914201D11A4600E062464C4933
:101880004C392EE0DFF82C8108F1A80841452AD90F
:10189000A94205D0494503D0514501D0B14201D1FB
:1018A00020221CE059451AD0714518D0414D783599
:1018B000A94214D03E4D3035A94210D0B9420BD0C8
:1018C0003B4A183A914207D03A4A9032914203D0AB
:1018D000374A4832914201D11A4600E06246344903
:1018E00050390A605AE0DFF8CC8008F148084145D9
:1018F0002AD9A94205D0494503D0514501D0B1426A
:1019000001D120221CE059451AD0714518D0294D2B
:101910007835A94214D0264D3035A94210D0B942AD
:101920000BD0234A183A914207D0224A9032914272
:1019300003D01F4A4832914201D11A4600E0624664
:101940001C491039CA6029E0A94205D0494503D095
:10195000514501D0B14201D120221CE059451AD095
:10196000714518D0134D7835A94214D0104D30353B
:10197000A94210D0B9420BD00D4A183A914207D073
:101980000C4A9032914203D0094A4832914201D127
:101990001A4600E06246074910398A6001680A6801
:1019A00042F001020A60FFE695700008AD70000881
:1019B000586402401060024001681823CAB2103A0D
:1019C000B2FBF3F2054B6FF30901032A9B5CC3657D
:1019D00000D9091D816508467047000014DC000825
:1019E00010B5014600208B698A6A4FF0C07453B16C
:1019F000B3F5005F15D072B1012A0CD0022A0AD0CB
:101A0000032A09D104E01AB1012A06D0022A03D11F
:101A1000C96AC90100D5012010BDC96AA142FAD026
:101A200010BD002AF7D0012AF2D0022AF3D0032AEF
:101A3000F3D010BD30B50468256825F480252560F5
:101A4000046863608368402B036803D09960006872
:101A5000C26030BD9A600068C16030BD70B590F85A
:101A600034500024012D0CD0012580F8345090F81A
:101A700035600025012E06D080F83450022420461F
:101A800070BD022070BD022680F83560456505688E
:101A90002E6826F480262E6005686B608368402BD4
:101AA000036808D099600168CA600068016841F065
:101AB00001010160E3E79A600268D160F5E710B5C3
:101AC00003F03CF8FEF73CFFFFF718FE03F062FD61
:101AD00003F08AFD03F0B4FD03F0D0FDFFF778FAC0
:101AE000BDE81040FFF7C0BA01680A68D20604D505
:101AF000C968C90601D509F03BBB704770EE601A92
:101B0000F5EEC01AF1EE10FA01DC70EEC01AF4EE38
:101B1000C11AF1EE10FA01D2B0EE600A70477047B8
:101B200070470000064A136823F44073136013687B
:101B30001360136843F001031360017070470000E5
:101B4000103C0240094910B50C6824F440740C6044
:101B50000C6844F440740C600C6844F001040C60A0
:101B60000260BFF36F8F436010BD0000103C024065
:101B7000074A136823F440731360136843F48073B7
:101B80001360136843F00103136001807047000085
:101B9000103C0240074A136823F440731360136833
:101BA00043F400731360136843F001031360016092
:101BB00070470000103C024017490868C2061748E9
:101BC00005D5C26942F01002C26110220A600A689B
:101BD000920605D5C26942F00802C26120220A605D
:101BE0000A68520605D5C26942F00402C261402269
:101BF0000A600A68120605D5C26942F00202C26193
:101C000080220A600A68920705D5C26942F0200264
:101C1000C2610220086070470C3C02400C12002098
:101C200070B5114904460020C86101F0B5F80646B8
:101C30000E4D09E0601C07D024B101F0ADF8801B07
:101C4000A04201D9032070BD2868C003F2D42868DF
:101C5000C00701D001202860286810F0F200F2D0FF
:101C6000FFF7AAFF012070BD0C1200200C3C0240BF
:101C7000044A00F57A701060101D01F57A71016058
:101C8000704700003404004078B50024009490F8B8
:101C90003C20012A19D0012280F83C200A68072341
:101CA0000568092A13D9EE680A3A02EB420293400A
:101CB0009E43EE600B788A680A3B03EB43039A402D
:101CC0000368DD682A43DA6010E0022078BD2E69DF
:101CD00002EB420293409E432E610B788A6803EB2D
:101CE00043039A4003681D692A431A614A681F2307
:101CF000072A13D205686E6B521E02EB82029340D4
:101D00009E436E630B790A885B1E92B203EB8303DA
:101D10009A4003685D6B2A435A6327E005680D2AE1
:101D200012D22E6BD21F02EB820293409E432E638F
:101D30000B790A88DB1F92B203EB83039A40036896
:101D40001D6B2A431A6311E0EE6A0D3A02EB820220
:101D500093409E43EE620B790A880D3B92B203EBEF
:101D600083039A400368DD6A2A43DA62164B0568EA
:101D7000144A9D4206D10D68122D03D1556845F4D1
:101D80008005556005689D4218D10B68102B01D065
:101D9000112B13D1536843F40003536009681029D1
:101DA0000CD10A490A4A0968B1FBF2F101EB810141
:101DB000490000E0491E00910029FBD180F83C4019
:101DC000002078BD00230140002001404006002093
:101DD00040420F0070B504004FF0000503D0206CA6
:101DE000002610B107E0012070BD204600F01CF86D
:101DF000666484F83C60206CC00610D4206C20F42B
:101E0000885040F0020020642046FEF79BFD666487
:101E1000206C20F0020040F00100206400E0012569
:101E200084F83C60284670BD10B586B00446142185
:101E30006846FEF76FFA1149206888421CD11048A5
:101E40000021026842F480720260006800F4807031
:101E500005900B481438026842F0040202600068E2
:101E600000F004000590012000900320CDE901015D
:101E70006946044800F08AFE06B010BD002001400B
:101E8000443802400008024090F82020012A07D080
:101E9000022A05D0416A41F4802141620120704745
:101EA000006842690A43426100207047F0B590F82B
:101EB00020500468A468012D05D0022D03D0416A8A
:101EC00041F4802153E014F0406F01D1E5004BD57F
:101ED000C4F30164022C03D9416A41F4000146E0D5
:101EE0000125A5401D608D684FF4C0739DB1CE687B
:101EF00035434E6845EAC605066803EB0417F551FD
:101F00004FF4C275076805EB04150E697E51097D13
:101F1000012905D009E00E88CD6845EA4655EBE772
:101F200001684E5946F480764E511179D2F8055029
:101F30004FF4C67641EA0525016806EB04168D517B
:101F40001178D2F801204FF4C47541EA02210268E9
:101F500005EB04155151006803EB0411425842F09F
:101F6000010242500020F0BD416A41F4001141627B
:101F70000120F0BD10B590F82020012A07D0022AD8
:101F800005D0416A41F480214162012010BD3B48E7
:101F9000D0F8002242F00102C0F80022D0F800225E
:101FA00022F47C52C0F80022D0F800224B6A42EAA8
:101FB0000322C0F800220A7D02F01F0301229A408A
:101FC000D0F81C329343C0F81C32CB69B3B9D0F8B7
:101FD0000C329343C0F80C328C894B6864F31F4376
:101FE0004C6900EBC404C4F840320C890B6864F3FC
:101FF0001F434C6900EBC404C4F84432CB69012B85
:1020000016D1D0F80C321343C0F80C320C884B6850
:1020100064F31F434C6900EBC404C4F840320C89DC
:10202000CB6864F31F434C6900EBC404C4F844322A
:102030008B69002BD0F804320ED01343C0F8043261
:102040000B69002BD0F8143208D01343C0F81432B7
:10205000096A012904D008E09343EFE79343F5E7C9
:10206000D0F81C121143C0F81C12D0F8001221F055
:102070000101C0F80012002010BD00000064004003
:10208000704730B590F82040012C05D0022C03D0C9
:10209000416A41F480215DE00468002955D024693B
:1020A000A40754D04FF4D874056804EB01142D59DB
:1020B00015F00405956005682D594ED0ED08556062
:1020C00005682C5904F00204D4604FF4DA740568F2
:1020D00004EB01142D5905F00F05156105682D5904
:1020E000C5F30725956105682C59240C54614FF4FC
:1020F000DC72046802EB0112A4581C700468A45836
:10210000240A5C700468A458240C9C700468A258CB
:10211000120EDA704FF4DE72046802EB0112A4585A
:102120001C710468A458240A5C710468A458240C27
:102130009C710468A258120EDA71006881B10169BD
:1021400041F020010161002030BDE468A8E7416A48
:1021500041F400114162012030BD6D0D1560AFE703
:10216000C16841F02001C160EDE72DE9F05F05464F
:10217000006800244669D0F804908768D0F80CB055
:10218000D0F810A0D0F81880F10748D0F90714D083
:1021900001218160B80703D5284600F030FA0CE031
:1021A000780702D54FF4006407E0380702D54FF4F2
:1021B000805402E0284600F021FAF80516D5296877
:1021C0004FF480708860B80503D5284600F019FAEE
:1021D0000CE0780502D544F4005407E0380502D538
:1021E00044F4804402E0284600F00AFAF80316D5C9
:1021F00029684FF480308860B80303D5284600F082
:1022000002FA0CE0780302D544F4004407E03803F6
:1022100002D544F4803402E0284600F0F3F9300798
:1022200007D55FEACB6004D52968102044F4007418
:10223000C86070074FF0080707D55FEA0B7004D538
:102240002868C760284600F099F9B00706D52868C5
:10225000C068800702D0284600F092F9700607D5C2
:102260005FEACA6004D52968102044F480640861DC
:10227000B00607D55FEA0A7004D5286807612846CA
:1022800000F08CF9F00606D528680069800702D0B6
:10229000284600F084F9B00308D55FEAC96005D587
:1022A000296810204860284600F07AF9F00307D525
:1022B0005FEA097004D528684760284600F0A4F951
:1022C000300446D55FEA497040D5F00504D55FEA91
:1022D000C87001D044F00104B00504D55FEA8870ED
:1022E00001D544F00204700504D55FEA487001D5B9
:1022F00044F00404300529D518F0700F26D008F0FA
:102300007000402815D006DC102809D020280AD0FB
:10231000302816D10AE050280ED0602811D10EE0E6
:1023200044F008040DE044F010040AE044F02004F6
:1023300007E044F0400404E044F0800401E044F489
:1023400080742868816921F0700181612968042006
:102350004860002C05D0686A204368622846FFF771
:102360008FFEBDE8F09F70B5040003D094F8200004
:1023700010B104E0012070BD204600F081F8206813
:10238000016841F00101016000F006FD05460526E7
:1023900004E000F001FD401B0A2811D820684068C5
:1023A000C007F6D02068016821F00201016000F04A
:1023B000F3FC05460BE000F0EFFC401B0A2806D9B1
:1023C000606A40F40030606284F82060D2E72068E0
:1023D00040688007EFD4207E0128206801683DD046
:1023E00021F080010160607E01282068016838D0FA
:1023F00021F040010160A07E01282068016833D0EF
:1024000021F020010160E07E0128206801682ED0C3
:1024100041F010010160207F01282068016829D067
:1024200021F008010160607F01282068016824D044
:1024300021F004010160D4E902010843D4E9041247
:10244000114308436168491E08432168C8610020A0
:102450006062012084F82000002070BD41F08001FE
:10246000C0E741F04001C5E741F02001CAE721F093
:102470001001CFE741F00801D4E741F00401D9E7AA
:10248000F0B587B0044614216846FDF743FF364B8C
:102490003648DFF8D0E01968D4F800C0334A032585
:1024A0000226092710300024491CF44522D1196066
:1024B000012907D1016841F000710160006800F056
:1024C00000700590106840F0080010601068CDE9B9
:1024D000005600F00800CDE9047069462448CDE9B3
:1024E000024500F053FB00220521142000F0F2FC0D
:1024F000142032E0DFF87CE0F44530D1D0F800C0A1
:102500004CF0806CC0F800C0D0F800C001290CF07D
:10251000806CCDF814C0196007D1016841F00071DA
:102520000160006800F000700590106840F0020043
:102530001060106802AB00F0020005906020CDE949
:10254000000683E8B00069460B4800F01FFB00223C
:102550000521402000F0BEFC402000F0ADFC07B09B
:10256000F0BD0000006400403C060020303802400E
:10257000000C024000680040000402407047000068
:10258000044A0168914202D0034A914201D1FEF708
:10259000DFBE70470064004000680040704770472D
:1025A0007047000070B5044690F82000012804D060
:1025B000606A40F40020606218E0022084F8200085
:1025C0002068016821F00101016000F0E5FB05468B
:1025D0000EE000BF00F0E0FB401B0A2808D9606A4B
:1025E00040F400306062052084F82000012070BDB6
:1025F00020684068C007EDD1606270BD70477047C9
:102600007047704770477047704770B54379012B2A
:102610001CD0012646710223037105682B6802F065
:10262000100440F6FE72A2409343D1E900210A4310
:10263000A2401A432A6001680A68C023A3409A4353
:102640000A60067100214171084670BD022070BD0C
:1026500070B5040003D02079002510B105E00120F9
:1026600070BD6571204600F007F8022020712561D9
:1026700001202071002070BD10B586B004461421E1
:102680006846FDF747FE1149206888421CD1104872
:102690000021026842F000520260006800F0005021
:1026A00005900B481038026842F001020260006891
:1026B00000F001000590102000900320CDE90101F9
:1026C0006946044800F062FA06B010BD007400408C
:1026D000403802400000024070B54279012A1ED005
:1026E00001224271022303710468266801F010037D
:1026F00002FA03F52E4326600029016811D00C6808
:1027000004F470153C249C40A54203D14B6843F06F
:1027100002034B60027100214171084670BD022026
:1027200070BD0B68C3F383030F2BF3D14B6843F0E9
:102730000103EEE72DE9F0410446876D00F02CFB24
:10274000064694F835000025022806D080206065F2
:1027500084F834500120BDE8F0812068016821F040
:10276000160101602068416921F080014161206CFF
:1027700008B9A06C20B12068016821F0080101604F
:102780002068016821F0010101600CE000F004FB09
:10279000801B052807D920206065032084F83500B8
:1027A00084F83450D7E720680068C007EED194F869
:1027B0005C103F208840B860012084F8350084F820
:1027C00034500020C7E790F83510022903D080214B
:1027D000416501207047052180F8351000680168C7
:1027E00021F0010101600020704700002DE9F8434D
:1027F00004464FF00009CDF8009063484FF416519D
:10280000A56D0068B0FBF1F72E6894F85C10082005
:1028100000FA01F131420FD021680A6852070BD546
:102820000A6822F004020A6094F85C108840A860EC
:10283000606D40F00100606594F85C104FF0010895
:1028400008FA01F0304208D021684969090604D528
:10285000A860606D40F00200606594F85C10042090
:102860008840304208D021680968890704D5A860EB
:10287000606D40F00400606594F85C1010208840A2
:10288000304218D021680968090714D5A86020686B
:102890000168490304D50068000308D5A16C07E06E
:1028A0000168C90503D4016821F008010160216CA9
:1028B00009B12046884794F85C10202088403042B7
:1028C00031D021680968C9062DD5A86094F8350073
:1028D00005282068016806D0490347D50068000331
:1028E0001DD4616C1CE021F0160101602068416973
:1028F00021F080014161206C08B9A06C20B12068F2
:10290000016821F00801016094F85C103F208840C4
:10291000A86084F8358084F83490216D1FE0E16B65
:1029200009B120468847606D00282BD0606DC00734
:1029300014D0052084F835002068016821F00101D9
:1029400001600098401C0090B84203D820680068DD
:10295000C007F6D184F8358084F83490E16C002902
:1029600010D001B02046BDE8F04308470168C90512
:10297000D5D4016821F01001016084F8358084F815
:102980003490CCE7BDE8F883400600202DE9F04103
:10299000044600F001FA06465CB1022084F83500D6
:1029A000002584F834502068016821F0010101609D
:1029B0000DE00120BDE8F08100F0EEF9801B052854
:1029C00005D920206065032084F83500F2E72068EF
:1029D0000068C007F0D12268116820480140D4E99E
:1029E00001031843D4E9033633431843636918439A
:1029F000A3691843E3691843236A18430843616ACB
:102A0000042903D1D4E90B1319430843106020684B
:102A10004069666A20F0070130460E43012704280A
:102A20000CD1A06A0643E06A40B12046FEF7D8FF09
:102A300020B14020606584F83570BAE720684661AF
:102A40002046FEF7B9FF94F85C203F219140816059
:102A5000656584F835700020ACE700003F8010F019
:102A60002DE9F0410446866D90F8340000250128D8
:102A70000DD0012084F8340094F835700020012F27
:102A800007D084F8340002252846BDE8F0810220F2
:102A9000FBE7022784F8357060652046FEF7CAFF21
:102AA00094F85C103F208840B0602068016841F0D5
:102AB00016010160206C20B12068016841F0080116
:102AC00001602068016841F001010160DCE700005D
:102AD0000348016841F00041016000207047000098
:102AE000103C02402DE9F0471B4E05461446307E4F
:102AF0001F468946012808D0012030764CF2503814
:102B00004046FFF78DF818B114E00220BDE8F087C9
:102B10009DB1012D16D0022D19D022463B464846C4
:102B2000FFF710F84046FFF77BF80C490A6822F0DF
:102B300001020A6000213176E8E7E1B24846FEF77B
:102B4000F1FFEFE7A1B24846FFF712F8EAE72146A6
:102B50004846FFF71FF8E5E70C120020103C024042
:102B6000074900200A68002A09DA054A054B0C3A91
:102B70001360054B13600968002900DA01207047D3
:102B8000103C024023016745AB89EFCD2DE9F84F9A
:102B9000DFF8BCA1002201250AF1040B03264FF047
:102BA0000F090BF1040E00BF0B6805FA02F4234075
:102BB000A34270D10F7907F00307012F01D0022F34
:102BC00016D187684FEA420806FA08FC27EA0C0784
:102BD000D1F80CC00CFA08FC4CEA070CC0F808C08D
:102BE0004768A7430C79C4F3001494403C43446005
:102BF0000C79E443A4070AD0C4684FEA420C06FAF1
:102C00000CF7BC438F6807FA0CF72743C7600C79B1
:102C100004F00304022C12D1D40800EB840CDCF87D
:102C200020405707FF0E09FA07F824EA0804D1F8F4
:102C3000108008FA07F848EA0408CCF820800468F5
:102C40004FEA420C06FA0CF7BC430F7907F0030772
:102C500007FA0CF7274307604C6814F4403F70D024
:102C60003C4C276847F480472760246822F003071C
:102C700004F480440094384C07EB040CDCF808485A
:102C800097074FEA177809FA08F7BC43334FB84261
:102C900002D1002724E054E0314FB84201D101278E
:102CA0001EE0304FB84201D1022719E02E4FB84242
:102CB00001D1032714E02D4FB84201D104270FE0C2
:102CC0002B4FB84201D105270AE02A4FB84201D163
:102CD000062705E0284FB84201D1072700E0082762
:102CE00007FA08F72743CCF80878DAF80040574687
:102CF000D1F804C09C435FEACC3C00D51C433C6047
:102D0000DBF800405F46D1F804C09C435FEA8C3C8E
:102D100000D51C433C60DEF800407746D1F804C083
:102D20009C435FEACC2C00D51C433C60084F0C3719
:102D30003C68D1F804C09C435FEA8C2C00D51C434E
:102D40003C60521C102AFFF42FAFBDE8F88F000042
:102D5000003C014044380240003001400000024085
:102D60000004024000080240000C02400010024033
:102D70000014024000180240001C0240426921EA8F
:102D800002030A4043EA0241816170470AB181614E
:102D900070470904FBE700000148806870470000A5
:102DA0004406002009480168094A1278114401606C
:102DB0004FF08041496A006800EB4002C2EBC0104E
:102DC00001EBC00003490860704700004C0600207A
:102DD00044060020480000200B4810B5016841F46B
:102DE00000710160016841F480610160016841F493
:102DF00080710160032000F08DF8002000F006F8DB
:102E000000F03EF8002010BD003C024010B5014625
:102E100088B000221C2000F05DF81C2000F04CF867
:102E200014480024016841F001010160006805A90F
:102E300000F001000690684600F018F900F036F93D
:102E40000D494000B0FBF1F10C484FF08042491EA3
:102E5000026040F2E732C0E90324C0E9011400F047
:102E6000A1FB10B1012008B010BD044800F0EAFB3E
:102E7000F9E700004038024040420F00C411002032
:102E80000C4882B0016841F480410160006800F4A0
:102E9000804000900748001F016841F080510160A8
:102EA0000068002200F0805000900F21901E02B0B8
:102EB00000F010B844380240002809DB00F01F027F
:102EC000012191404009800000F1E020C0F800118C
:102ED00070470000F0B40E4B1B680C46C3F302238E
:102EE000C3F10705042D00D90425191D072901D2B6
:102EF000002300E0DB1E012606FA05F1491E2140F1
:102F000099409E40761E16403143F0BC02F067BCEB
:102F10000CED00E0064900F0070208684FF6FF03D9
:102F2000184040EA0220034A10430860704700003E
:102F30000CED00E00000FA052DE9F0470E46050013
:102F400065D0DFF81481D8F80000F7B200F0070070
:102F5000B04207D288F80070D8F8000000F00700EF
:102F6000B04254D128683D4C810712D5400703D5A3
:102F7000206840F4E05020602878000703D52068DE
:102F800040F4604020602068A96820F0F000084309
:102F900020602878C0072DD030496868083901289A
:102FA00012D0022813D0032811D0096889070029FC
:102FB0002DDA216821F0030101432160FFF7ECFEC7
:102FC000814641F2883A0EE009688903EFE7096813
:102FD0008901ECE7FFF7E0FEA0EB0901514502D9BA
:102FE0000320BDE8F0872068696800F00C00B0EBB2
:102FF000810FEFD1D8F80010404601F00701B1422F
:1030000007D90770006800F00700B04201D0012026
:10301000E7E72878400705D52068E96820F4E05004
:10302000084320602878000706D52068296920F425
:10303000604040EAC100206000F058F82168084A6A
:10304000C1F30311515CC840064908600648006896
:10305000FFF7DCFE0020C4E7003C024008380240D5
:10306000FCDB000840060020480600200F2202601A
:103070000C4A136803F003034360136803F0F00382
:103080008360136803F4E053C36012684FF4E053A5
:1030900003EAD20202610448006800F007000860F9
:1030A0007047000008380240003C024004480549CF
:1030B00000680968044AC1F38221515CC840704726
:1030C00040060020083802400CDC0008044805498E
:1030D00000680968044AC1F34231515CC840704736
:1030E00040060020083802400CDC0008154810B5E6
:1030F000006810F00C02144813D01449042A0FD0B1
:10310000082A0ED10F4C241F2268236802F03F02C8
:103110005B0207D52068C0F38810A0FB010106E020
:10312000084610BD2168C1F38811A1FB00010023EE
:10313000FDF7A6F82168C1F30141491C4900B0FB25
:10314000F1F010BD083802400024F40040787D0101
:103150002DE9F84F04006ED02078DFF84C93C007BB
:10316000A9F104054AD009F104000168C1F3810105
:10317000012908D00068C0F3810002280AD1D9F8DB
:103180000000400206D52868800337D56068002813
:10319000E1D033E06068B0F5803F10D0B0F5A02FEB
:1031A000286810D020F480302860286820F480201F
:1031B00028606068A8B1FFF7EFFD06460DE02868BB
:1031C00040F48030F4E740F480202860F7E700BF47
:1031D000FFF7E2FD801B642873D828688003F7D5C9
:1031E0000CE0FFF7D9FD064605E000BFFFF7D4FD70
:1031F000801B6428F0D828688003F7D42078DFF893
:10320000AC8280074FF0000A3ED5A748001D016838
:1032100011F00C0F08D00068C0F3810002280BD118
:10322000D9F80000400207D42868800716D5E06866
:10323000012800D112E033E1E068B8B10120C8F8FC
:103240000000FFF7A9FD064605E000BFFFF7A4FD5B
:10325000801B0228C0D828688007F7D52868216914
:1032600020F0F80040EAC10028600DE0C8F800A096
:10327000FFF792FD064604E0FFF78EFD801B022853
:103280001FD828688007F7D42078000722D5864FFA
:1032900087486169703771B101210160FFF77CFDDA
:1032A000064604E0FFF778FD801B022809D838683D
:1032B0008007F7D50EE0C0F800A0FFF76DFD0646C9
:1032C00005E082E0FFF768FD801B02287DD83868A2
:1032D0008007F7D42078400768D5DFF8CCB1002705
:1032E0000BF13C0BDBF80000C0000BD4DBF8001046
:1032F00041F08051CBF80010DBF80000012700F00E
:10330000805000906B4E3068C00510D4306840F497
:1033100080703060FFF740FD009005E0FFF73CFD56
:103320000099401A022850D83068C005F6D55E4E84
:10333000A0686C3601280FD00528306810D020F026
:1033400001003060306820F004003060A068B8B13F
:10335000FFF722FD00900FE0306840F00100F4E735
:1033600040F004003060F7E7FFF716FD0099411ABE
:1033700041F28830814266D830688007F4D50EE08B
:10338000FFF70AFD009007E0FFF706FD0099411ADC
:1033900041F28830814256D830688007F4D42FB18A
:1033A000DBF8001021F08051CBF80010A069C8B301
:1033B0003D49091D0968C1F3810102294AD002284B
:1033C000504607D0C8F8600000E03CE0FFF7E4FC9E
:1033D00004463BE04746C8F86000FFF7DDFC0646C0
:1033E00005E000BFFFF7D8FC801B02282BD8286817
:1033F0008001F7D4D4E907010843A16A2E4A49089D
:1034000002EB0141626A41EA8211084394F82C10F0
:1034100040EA0161C9F8001001203866FFF7BCFCE2
:10342000044606E03EE000BFFFF7B6FC001B0228A2
:1034300009D828688001F7D534E000BFFFF7ACFC5D
:10344000001B022802D90320BDE8F88F28688001FC
:10345000F4D427E00128F7D0D9F80000E26900F49D
:10346000800191421CD1226A00F03F01914217D1A4
:1034700047F6C071626A0140B1EB821F10D1A26AA7
:103480004FF0FF3300F4403103EB5202B1EB024F37
:1034900006D194F82C1000F07060B0EB016F01D0F1
:1034A0000120D1E70020CFE7043802400000474266
:1034B000800E4742007000400000FFFF70477047D9
:1034C00010B590F83C20012A22D0012280F83C203F
:1034D000CA688C6822F4407222434C6822F48062ED
:1034E00022430C6822F4006222430C6922F48052C9
:1034F00022434C6922F400522243C969002322F47A
:1035000080420A4301684A6480F83C30002010BDC4
:10351000022010BD70B590F83C20012A32D0012461
:1035200080F83C40022280F83D2003685A689D687C
:1035300022F070060A6832435A60134B02689A42BE
:1035400014D0B2F1804F11D0104B9A420ED0104BD4
:103550009A420BD00F4B9A4208D00F4B9A4205D09B
:103560000E4B9A4202D00E4B9A4204D1496825F084
:1035700080031943916080F83D40002180F83C10A1
:10358000084670BD022070BD0000014000040040EC
:1035900000080040000C00400004014000400140D1
:1035A0000018004010B5040003D094F83D0010B19D
:1035B00007E0012010BD002084F83C00204600F008
:1035C0001FF8022084F83D00211D206801F0AAFCAC
:1035D000012084F8460084F83E0084F83F0084F817
:1035E000400084F8410084F8420084F8430084F8E5
:1035F000440084F8450084F83D00002010BD000020
:1036000008B500680C49884208D10C48016841F0AF
:1036100001010160006800F001000BE008498842E8
:1036200009D10648001F016841F0020101600068ED
:1036300000F00200009008BD000001404438024044
:103640000004004090F83D10012901D0012070478E
:10365000022180F83D100168CA6842F00102CA6088
:1036600000681149884214D0B0F1804F11D00F4941
:1036700088420ED00E4988420BD00E49884208D0AD
:103680000D49884205D00D49884202D00C49884234
:1036900004D1816801F00701062903D0016841F0D7
:1036A000010101600020704700000140000400405B
:1036B00000080040000C00400004014000400140B0
:1036C0000018004070B5044690F83C000025012821
:1036D00017D0012684F83C60022084F83D00206861
:1036E000826822F0770222F47F42826008685028C4
:1036F00038D00DDC20284FD005DC90B3102811D134
:103700004AE0022070BD302846D040280AD13BE074
:1037100060282FD070280DD0B0F5805F03D0B0F5B1
:10372000005F12D0012584F83D60002084F83C0041
:10373000284670BDCB68D1E90121206801F063FC07
:103740002068816841F0770109E0CB68D1E9012167
:10375000206801F058FC2068816841F48041816054
:10376000E1E719E0CA684968206801F021FD5021AD
:10377000206806E0CA684968206801F02AFD6021D7
:10378000206801F04AFCCEE7CA684968206801F069
:103790000FFD40212068F4E7226801461046F0E75B
:1037A000704770B50446006801694FF00005C943D1
:1037B000890715D4C168C943890711D4E91E01617D
:1037C00001202077206880698007204602D0FFF71B
:1037D000E7FF04E000F0DAF8204600F06CF9257706
:1037E00020680169C943490717D4C168C94349071B
:1037F00013D46FF0040101610220207720688069F2
:1038000010F4407F204602D0FFF7CAFF04E000F02A
:10381000BDF8204600F04FF9257720680169C943BB
:10382000090716D4C168C943090712D46FF008010B
:103830000161042020772068C0698007204602D0FB
:10384000FFF7AEFF04E000F0A1F8204600F033F9E6
:10385000257720680169C943C90617D4C168C943DF
:10386000C90613D46FF01001016108202077206889
:10387000C06910F4407F204602D0FFF791FF04E0BA
:1038800000F084F8204600F016F9257720680169D9
:10389000C943C90708D1C168C943C90704D1891EF2
:1038A0000161204600F06CF920680169C9430906EE
:1038B00009D4C168C943090605D46FF080010161CC
:1038C0002046FFF7FBFD20680169C943490609D47A
:1038D000C168C943490605D46FF040010161204623
:1038E00000F055F920680169C94389060BD4C16805
:1038F000C943890607D46FF0200101612046BDE865
:103900007040FFF7DCBD70BD10B586B004461421D1
:103910006846FCF7FFFC2368174C00211748022279
:10392000A34211D1036843F010030360006800F064
:103930001000059090020090CDE901210120CDE911
:10394000031069460E4812E00E4CA34211D10368E1
:1039500043F001030360006800F001000590C020FF
:103960000090CDE90121CDE9031269460648FFF731
:103970000DF906B010BD00000000014030380240D3
:10398000001002400004004000000240704770B583
:10399000044690F83C0000260D4601280FD0012077
:1039A00084F83C006AB1042A1DD0082A2FD00C2AC2
:1039B0003FD00126002084F83C00304670BD022034
:1039C00070BD206801F032FB2068816941F0080178
:1039D00081612068816921F0040181612068816929
:1039E0002A69114311E0206801F050FB20688169C9
:1039F00041F4006181612068816921F48061816105
:103A0000206881692A6941EA02218161D2E7206840
:103A100001F072FB2068C16941F00801C1612068B2
:103A2000C16921F00401C1612068C1692A6911439B
:103A300011E0206801F094FB2068C16941F4006145
:103A4000C1612068C16921F48061C1612068C169D8
:103A50002A6941EA0221C161ACE710B5040003D034
:103A600094F83D0010B107E0012010BD002084F85B
:103A70003C00204600F01EF8022084F83D00211D85
:103A8000206801F04FFA012084F8460084F83E00D7
:103A900084F83F0084F8400084F8410084F8420034
:103AA00084F8430084F8440084F8450084F83D001D
:103AB000002010BD7047704710B50446022249B17E
:103AC00004290ED0082913D094F84100012816D0FB
:103AD000012010BD94F83E000128F9D184F83E2061
:103AE0000FE094F83F000128F2D184F83F2008E06D
:103AF00094F840000128EBD184F8402001E084F8DC
:103B000041200122206801F071FA16492068164A06
:103B1000884201D0904203D1436C43F40043436494
:103B20002068884213D0B0F1804F10D00F498842EE
:103B30000DD00F4988420AD00E49884207D09042E2
:103B400005D00D49884202D00C49884204D18168D1
:103B500001F00701062903D0016841F0010101606D
:103B6000002010BD0000014000040140000400409E
:103B700000080040000C00400040014000180040D8
:103B80000068B0F1804F01D1FFF70CB97047704762
:103B900070477047F8B5016804460868CA684B6901
:103BA00010F00F0F4FF0000559D003F0010602F49A
:103BB0009077374365D0C10705D0D10503D5216C77
:103BC00041F001012164410705D5D90703D0216CDB
:103BD00041F002012164810705D5D90703D0216C8A
:103BE00041F004012164010707D502F020013143AF
:103BF00003D0216C41F008012164216C00293AD0E6
:103C0000800604D5900602D5204601F095FB206879
:103C10004069216CC0F38010090700D460B32046CE
:103C200001F055FB20684069400621D5206814301A
:103C300050E8001F21F0400140E80012002AF5D1B1
:103C4000A06BA8B16C490165A06BFEF7BCFD002814
:103C500011D0A06B016D01B0BDE8F04008478306AC
:103C60000FD593060DD52046BDE8F84001F064BBA2
:103C70002046FFF78EFFF8BD2046FFF78AFF256438
:103C8000F8BD266B2023012E79D1C60677D5D6063E
:103C900075D50868486800904869400640D5A16B12
:103CA000086840680004000CEAD0A28D8242E7D97F
:103CB000E085C869B0F5807F2DD020680C3050E8D1
:103CC000001F21F4807140E80012002AF5D120681D
:103CD000143050E8001F21F0010140E80012002AD2
:103CE000F5D12068143050E8001F21F0400140E871
:103CF0000012002AF5D184F83E30256320680C308C
:103D000050E8001F21F0100140E80012002AF5D110
:103D1000A06BFEF70FFDA08DE18D401A81B229E066
:103D2000A08DE18D401A81B2E08D0028A8D0002935
:103D3000A6D020680C3050E8002F22F4907240E8A2
:103D40000026002EF5D12068143050E8002F22F014
:103D5000010240E80026002EF5D184F83E302563AC
:103D600020680C3050E8002F22F0100240E80023B9
:103D7000002BF5D12046FFF70BFFF8BDFFE7050646
:103D80002BD5150629D594F83D002128F5D1A0683A
:103D9000B0F5805F01D12069B0B1206A411C216279
:103DA000216800784860E08C401E0004000CE0842C
:103DB000E3D12068C16821F08001C1602068C1683A
:103DC00041F04001C160D8E7206A0088C0F30800D4
:103DD0004860206A801C2062E5E74006CDD5500689
:103DE000CBD5CA68204622F04002CA6084F83D3034
:103DF00000F05EFAC1E700002952000870B5040027
:103E000004D094F83D00002510B106E0012070BDFB
:103E100084F83C50204600F023F8242084F83D002C
:103E20002068C16821F40051C160204601F0E4FA25
:103E30002068016921F4904101612068416921F005
:103E40002A0141612068C16841F40051C1602564C4
:103E5000202084F83D0084F83E00002070BD000062
:103E60002DE9F04F87B0054614216846FCF752FA59
:103E7000B348DFF8C88210380222D5F800C0B04B32
:103E80000321DFF8C0E20024960607154FF0080B67
:103E90004FF480794FF4003AC44539D1D3F800C0CB
:103EA0004CF4002CC3F800C01B6803F400230593F6
:103EB000036843F001030360006800F0010005900F
:103EC0008DE81600CDE9031B69467046FEF75EFEDD
:103ED000DFF878829C49404602C0E0E80264E0E8EE
:103EE000034740F8044C80E810064046C8F82440D8
:103EF000FEF74CFD08B1FDF713FEC5F8388000222F
:103F000005213420C8F83850FEF7E4FF342055E08E
:103F1000DFF83C82C44556D1D3F800C04CF4801C75
:103F2000C3F800C01B6803F480130593036843F0D3
:103F300004030360036803F004030593036843F07C
:103F4000080303600068884600F0080005904FF4FD
:103F50008050009001AA022082E8110969467D483C
:103F6000FEF714FE0420009001AA022082E8110945
:103F700069467948FEF70AFEDFF8D081724908F1F8
:103F800060084046303902C0E0E80264E0E80347D8
:103F900040F8044C80E810064046C8F82440FEF77C
:103FA000F5FC08B1FDF7BCFDC5F8388000220521FD
:103FB0003520C8F83850FEF78DFF3520FEF77CFF1E
:103FC00007B0BDE8F08FDFF89481C44557D15C4B52
:103FD000A3461B1DD3F800C04CF0100CC3F800C062
:103FE0001B6803F010030593036843F001030360AB
:103FF000006800F0010005904FF4C0608DE81500E6
:104000000720CDE9031069467046FEF7BFFD4F4813
:104010005349C030B8460160C0E90164C0E90347B4
:104020004461C0E90649C0E908A45746FEF7AEFC62
:1040300008B1FDF775FD45484A4CC030A86385635B
:1040400047487830C4E900064020A060C4E903B8BE
:10405000C4F814B0C4F818B0C4E907B72046C4F8CF
:1040600024B0FEF793FC08B1FDF75AFD6C63002203
:1040700005212520A563FEF72DFF25209EE7DFF80B
:10408000E880C4459CD1D3F800C04CF4003CC3F890
:1040900000C01B6803F400330593036843F0010379
:1040A0000360036803F001030593036843F008030A
:1040B00003600068CDF800B000F008008A464FF0B9
:1040C0000708CDE90480CDE9024A9346694601928A
:1040D0007046FEF75BFD2020CDE9000BCDE9024ADA
:1040E0006946CDF810801C48FEF750FDDFF874805B
:1040F000154908F1600848314046C8F80010C0E989
:104100000164C0E90347C8F814404FF44031C8F8CF
:104110001840C8E90791C8F82440FEF737FC08B1F9
:10412000FDF7FEFCC5F83880002205212620C8F8DE
:104130003850FEF7CFFE262040E70000004C00403C
:10414000403802400000024040600240E40F00207E
:104150000050004000080240000C024000100140E6
:1041600040640240041100200044004070470000F9
:104170002DE9F843044690F83D001F4616460D46CB
:1041800020284CD1C5B1BEB194F83C00012846D0DE
:10419000012084F83C004FF00008C4F84080212042
:1041A00084F83D00FEF7F8FDA6848146E684A06809
:1041B000B0F5805F03D004E00120BDE8F8832069FA
:1041C00028B12E465FF0000584F83C800EE0002602
:1041D000FAE78021204601F095F9A0B9AEB116F8B2
:1041E000010B21684860E08C401EE084E08C4B4667
:1041F0004FF0000200970028EBD14FF0400120461D
:1042000001F080F930B10320D7E735F8020BC0F395
:104210000800E6E7202084F83D000020CDE70220DA
:10422000CBE7000070B5044690F83D00202836D159
:1042300091B38AB394F83C00012830D0012084F86F
:104240003C002162A284E28400252564212084F8B8
:104250003D00636B1348D863636B13481864636B4A
:104260001248D864606B134605652668606B321D82
:10427000FEF7F6FB21686FF04000086084F83C50C0
:104280002068143050E8001F41F0800140E800121F
:10429000002AF5D1002070BDFFE70120FBE70220D6
:1042A000F9E7000083520008C5520008395200089F
:1042B00070477047FEE7000070B50D4C0025C4F84C
:1042C000B4520C48016821F040410160016841F09E
:1042D00080410160C4F8BC52022004F52D7402F044
:1042E000CDFE01202060022002F0C8FE256070BDD6
:1042F000008040420004024070B50D4C0025C4F817
:10430000B4520C48016821F040410160016841F05D
:10431000804101600126C4F8BC62022004F52D74BE
:1043200002F0ACFE2660022002F0A8FE256070BDFF
:1043300000804042000402402DE9F04781461648C3
:104340000024016821F04041016001680160134EC2
:10435000254627464FF00108C6F8B472022002F045
:104360008DFEC6F8B4826006040ED6F83C0208B191
:10437000641CE4B2012002F081FE6D1CEDB2082D38
:10438000EAD3B9F1000F04D0FFF796FF2046BDE84D
:10439000F087FFF7B1FFF9E70004024000804042D8
:1043A0002DE9F04106461448016821F040410160C2
:1043B000016841F080410160104C0027C4F8B472DC
:1043C0003D464FF00108F009C4F8BC027006060E25
:1043D000022002F053FEC4F8B482022002F04EFE26
:1043E000C4F8B472022002F049FE6D1CEDB2082D33
:1043F000E9D3BDE8F08100000004024000804042A3
:1044000070B50D48016821F040410160016841F03C
:1044100080410160094C0120C4F8BC02C4F8B40218
:10442000042004F52D7402F029FE0025A560042067
:1044300002F024FE256070BD00040240008040426E
:104440000E4810B5016821F040410160016841F05B
:10445000804101600A4C0020C4F8B402C4F8BC02D8
:10446000042004F52D7402F009FE01202060A060F4
:10447000BDE81040042002F001BE0000000402402C
:104480000080404270B512480024016821F040418C
:104490000160016801600F4D0126C5F8BC6230461D
:1044A00002F0ECFDC5F8B462012002F0E7FD07E080
:1044B000641CE4B2FA2C03D9FFF7C2FF012070BDDF
:1044C000D5F83C020028F3D1C5F8B40270BD000055
:1044D000000402400080404270B50546FFF790FF9F
:1044E0000F4C20784006000EFFF75AFFFFF7CAFF77
:1044F0002846FFF755FFFFF7C5FFFFF781FF20783C
:10450000012101EB4000C0B2FFF74AFFFFF7BAFFFD
:104510000020FFF711FF0446FFF792FF204670BD11
:10452000B80000202DE9F04116460D460746FFF77A
:1045300067FF134C20784006000EFFF731FFFFF7AE
:10454000A1FF3846FFF72CFFFFF79CFFFFF758FF4E
:104550002078012101EB4000C0B2FFF721FFFFF7F7
:1045600091FF002406E00120FFF7E6FE641C05F839
:10457000010BE4B2B442F6D3BDE8F041FFF760BFEF
:10458000B80000207FB500241548009401940294DF
:104590001249039401604FF48031C0E901140461B1
:1045A000047680F820400F49C0E90A140125C5614E
:1045B000C46080F830404561FDF70CFC08B1FDF7A0
:1045C000AFFA0A20CDE90005694602940448FDF7D8
:1045D0005BFB002801D0FDF7A3FA7FBD002001405E
:1045E000980D00200100000F104810B50E49016021
:1045F0000321416000214FF400228160C0E90312D1
:104600004FF4401242610176417681760122C276F2
:1046100001774277FDF7A7FE002803D0BDE81040E0
:10462000FDF77EBA10BD000000640040E00D0020E0
:10463000104810B50E4901600321416000214FF47C
:1046400000228160C0E903124FF4401242610176FA
:10465000417681760122C27601774277FDF783FEAB
:10466000002803D0BDE81040FDF75ABA10BD000085
:1046700000680040080E00201CB500240C4900947E
:104680000A48019408600846FDF7E2FF08B1FDF70B
:1046900047FA0220CDE90040002269460448FDF7B0
:1046A000B4FF002801D0FDF73BFA1CBD00740040A8
:1046B000300E00201D4808B5016841F4001101606A
:1046C000016801F400110091016841F4800101606A
:1046D0000068002200F48000009005210B20FEF706
:1046E000F9FB0B20FEF7E8FB002205210D20FEF769
:1046F000F1FB0D20FEF7E0FB002205211020FEF764
:10470000E9FB1020FEF7D8FB002205213A20FEF736
:10471000E1FB3A20FEF7D0FB002205214620FEF700
:10472000D9FBBDE808404620FEF7C6BB3038024042
:1047300010B5A4B01C221C496846FBF7D2FD00212D
:10474000684603F033FE194C17491C2260601C3187
:1047500007A8FBF7C6FD002107A803F027FE1249B2
:10476000A0601C2238310EA8FBF7BBFD00210EA86B
:1047700003F01CFE0C49E0601C22543115A8FBF725
:10478000B0FD002115A803F011FE074920611C228D
:1047900070311CA8FBF7A5FD00211CA803F006FE44
:1047A000206024B010BD000070DB00082806002047
:1047B0002DE9F04F87B014216846FBF7ABFD434865
:1047C0000024016841F004010160016801F0040166
:1047D0000591016841F080010160016801F08001EC
:1047E0000591016841F001010160016801F00101DA
:1047F0000591016841F010010160016801F01001AC
:104800000591016841F002010160016801F00201B7
:104810000591016841F0080101600068DFF8B0907F
:1048200000F008004FF4D84505900122294648467B
:10483000FEF7ACFA002208214846FEF7A7FADFF897
:1048400094A0002224215046FEF7A0FADFF888B099
:104850004FF42047012239465846FEF797FA4FF4A5
:104860000078012241461D48FEF790FA0095012587
:10487000CDE90154694648460394FEF787F90820BC
:104880000326CDE90005CDE9024669464846FEF714
:104890007DF92420CDE90005CDE902466946504660
:1048A000FEF774F900970396CDE90154694658461E
:1048B000FEF76CF9CDF80080CDE901546946074850
:1048C0000394FEF763F907B0BDE8F08F303802407B
:1048D000000802400000024000040240000C0240B8
:1048E00010B596B000240F94109411941294139460
:1048F0001C2108A81494FBF70DFD20216846FBF746
:1049000009FD29482749016040F61F51C0E90114FB
:1049100040F2E731C0E9031444618461FEF742FECE
:1049200008B1FDF7FDF84FF480500F900FA91E4815
:10493000FEF7C8FE08B1FDF7F3F81B48FFF78DF846
:1049400008B1FDF7EDF8139413A917481494FEF776
:10495000E1FD08B1FDF7E4F86020CDE908040A9410
:104960000B940C940D94042208A90F480E94FFF7A1
:104970000EF808B1FDF7D4F800944FF40050CDE9DB
:104980000440029401940394694607480794FEF793
:1049900097FD08B1FDF7C4F80348FEF7B5FF16B060
:1049A00010BD000000000140440E002010B58EB084
:1049B00000240794089409940A940B941C216846D7
:1049C0000C94FBF7A7FC2248204901605321C0E961
:1049D000011440F6C311C0E903148461FEF7E2FD3F
:1049E00008B1FDF79DF84FF48050079007A91848CB
:1049F000FEF768FE08B1FDF793F81548FFF72DF8AC
:104A000008B1FDF78DF80B940BA911480C94FEF733
:104A100081FD08B1FDF784F86020CDE9000402941F
:104A2000002269460A480494FEF7B1FF08B1FDF779
:104A300077F8042269460648FEF7A9FF08B1FDF79A
:104A40006FF80348FEF760FF0EB010BD0004004091
:104A50008C0E00200C4810B50A4901604FF4E1317A
:104A60004160002181600C22C160C0E904128161B3
:104A7000C161FFF7C3F9002803D0BDE81040FDF77E
:104A80004FB810BD004C0040D40E00200C4810B5AB
:104A90000A4901604FF4E1314160002181600C223C
:104AA000C160C0E904128161C161FFF7A7F9002864
:104AB00003D0BDE81040FDF733B810BD00500040F2
:104AC000180F00200C4810B50A4901604FF4E1317D
:104AD0004160002181600C22C160C0E90412816143
:104AE000C161FFF78BF9002803D0BDE81040FDF746
:104AF00017B810BD001001405C0F00200C4810B525
:104B00000A4901600B494160002181600C22C160AB
:104B1000C0E904128161C161FFF770F9002803D078
:104B2000BDE81040FCF7FCBF10BD00000044004091
:104B3000A00F0020A0860100FEE7704710B50021FD
:104B40000948FEF7B9FF04210748FEF7B5FF002129
:104B50000846FDF78DF804210448FEF7ADFF04492F
:104B60000020886310BD00008C0E0020440E002041
:104B700000000140007AC01C8007400F7047806829
:104B8000A0F20120042802D24FF40070704740F2D6
:104B9000FF10704770B58EB00646002502468DF8AE
:104BA00000500121684601F035FC01F047FB324618
:104BB0000121042001F0EEFE044601F03FFB84B920
:104BC0000C208DF8020002208DF8030001208DF8E2
:104BD00005508DF8040001463246684601F0E4FFB6
:104BE00004460EB0204670BD70B58EB00124064656
:104BF00002468DF800402146684601F00BFC01F0AA
:104C00001DFB32460221042001F0C4FE054601F0DE
:104C100015FB95B90C208DF8020000208DF80600D8
:104C200002208DF803008DF807408DF804403246CD
:104C30000121684601F0B8FF05460EB0284670BD58
:104C4000064C20698047064D687828B1606A804725
:104C5000022003F09FFBF7E7E069F8E7D0040020AB
:104C6000370500201E4C4FF4FA781A4D1A4E1B4F90
:104C700004F11C0B04F1380A04F1540906F086FB18
:104C8000F1681548884706F0A1FB2888401C80B2CF
:104C90002880404506D9002028804FF40051114853
:104CA000FEF76CF879690D48884771690A488847AA
:104CB00061690B488847216B58468847E16C50462C
:104CC0008847A16E4846884702F0FCF9012003F0AE
:104CD00061FBD3E73C0500201C010020D40000202C
:104CE00058020020000802400B4D4FF0FF342146CF
:104CF0002346094A002006F06DFE0128F7D12878E6
:104D0000C00702D00548FCF735FA28788007EED5B1
:104D10000348FCF72FFAEAE74805002000000020CE
:104D200024000020224CA0688047224E4FF000084B
:104D3000012706F10109F51C06F028FB2068017E19
:104D4000012913D0E06880472068407EB0B187F326
:104D50001388BFF34F8F18480168184A01F4E061C7
:104D600011430160BFF34F8F00BFFDE7016A884721
:104D70002069804786F800806F7012E0687801280B
:104D80000FD13078022802D2401C307009E089F837
:104D9000007089F8018085F8008085F8018085F829
:104DA000028006F013FB022003F0F4FAC4E70000CF
:104DB000F8040020340500200CED00E00400FA05A2
:104DC00020480027A0F1700460602C30206070380B
:104DD000A0F12008051FA060A06890F8400008B16D
:104DE00004F0EEF895F8A200F8B1002004F026F8DF
:104DF0000646407818B1304604F00EF9777000206E
:104E000004F05CF80646407818B1304604F004F926
:104E10007770002004F032F90646407818B1304629
:104E200004F0FAF8777085F8A27098F80D1021B1A7
:104E30000448D8F8181064388847B5F8A00003F083
:104E4000A9FAC9E7BC05002010B5502080F31188ED
:104E5000BFF34F8FBFF36F8F06F056FD18B10449B3
:104E60004FF080500860002080F3118810BD0000D2
:104E700004ED00E030B593B030216846FBF74AFA04
:104E800014210CA8FBF746FA1A480025016841F0E6
:104E900080510160006800F0805011901648016850
:104EA00041F4804101600068022400F480401190C8
:104EB00001200090000401908001CDE906401920F6
:104EC00008904FF4A870CDE9090404200B906846BF
:104ED000FEF73EF90CA90F2081E831004FF4A050F5
:104EE0000F90E002109005210CA8FEF725F813B0F2
:104EF00030BD0000403802400070004005480168A5
:104F000041F47001016003494FF00060803908608E
:104F10007047000088ED00E00148FEF742BC000049
:104F2000C4110020F0B50268254C264D264E274FAF
:104F3000274B4FF0804CA04209D0604507D0A842D3
:104F400005D0B04203D0B84201D0984204D122F03B
:104F5000700E4A6842EA0E02A0421BD0604519D08A
:104F6000A84217D0B04215D0B84213D0984211D001
:104F7000184DA8420ED0184DA8420BD0174DA8428C
:104F800008D0174DA84205D0164DA84202D0164DA4
:104F9000A84203D122F44075CA682A434D6922F021
:104FA00080022A4302608A68C2620A688262A04262
:104FB00001D0984201D10969016301214161F0BD2D
:104FC000000001400004004000080040000C0040C8
:104FD00000040140004001400044014000480140FD
:104FE00000180040001C00400020004010B501F0F7
:104FF0001F030121046A99408C430462016A9A40AC
:105000001143016210BD10B5846842EA032224F402
:105010007F440A432243826010BD826822F07002FE
:105020000A4342F00701816070470000F0B5026A50
:1050300022F001020262036A42688469124E24F07F
:1050400073050C682C4323F002058B682B430D4D30
:10505000A84201D0B04205D123F00807CB683B43FA
:1050600023F00403A84201D0B04205D14D6922F4D7
:10507000407215438A692A434260846149684163EA
:105080000362F0BD0000014000040140F0B5026A77
:1050900022F010020262026A436884690D6824F4F7
:1050A000E64444EA05248D6822F0200242EA051213
:1050B0000F4D104EA84201D0B04206D1CF6822F069
:1050C000800242EA071222F04002A84201D0B04218
:1050D00007D14D6923F4406343EA85038D6943EAB0
:1050E000850343608461496881630262F0BD00000A
:1050F0000000014000040140F0B5026A22F4807211
:105100000262026A4368C46922F4007224F07305E3
:105110000C68124E2C438D6842EA05220E4DA842BF
:1051200001D0B04206D1CF6822F4006242EA0722E1
:1051300022F48062A84201D0B04207D14D6923F425
:10514000405343EA05138D6943EA05134360C46184
:105150004968C1630262F0BD0000014000040140E3
:1051600030B5026A22F480520262046A4268C3695E
:105170000D6823F4E64343EA05238D6824F40054C4
:1051800044EA0534084DA84202D0084DA84204D193
:105190004D6922F4804242EA85124260C361496847
:1051A0000164046230BD00000000014000040140C1
:1051B00010B5036A046A24F001040462846924F0CF
:1051C000F00444EA021423F00A020A4384610262F2
:1051D00010BD10B5036A23F0100303628369046AEB
:1051E00023F4704343EA023224F0A00343EA01119E
:1051F0008261016210BD000010B50448FCF774FC28
:10520000BDE810400148FEF7C5BC0000D40E0020E8
:1052100010B50448FCF768FCBDE810400148FEF7F3
:10522000B9BC0000180F002010B5806B0021C185AB
:10523000C184FEF7AEFC10BD70B5846B2068406978
:1052400094F83D10C0F3C0100025212904D118B1F5
:10525000E584204600F062F82068406994F83E102A
:10526000C0F38010222904D118B1E585204600F052
:105270002EF8206C40F0100020642046FEF789FCD8
:1052800070BD10B50146806B09680968C90516D460
:105290000021C1840168143151E8002F22F08002FE
:1052A00041E80023002BF5D101680C3151E8002FB3
:1052B00042F0400241E80023002BF5D110BDFEF77B
:1052C000F7FF10BD10B5806BFEF7F3FF10BD01684E
:1052D0000C3151E8002F22F4907241E80023002B9A
:1052E000F5D10168143151E8002F22F0010241E8A4
:1052F0000023002BF5D1016B012909D101680C3184
:1053000051E8002F22F0100241E80023002BF5D1D4
:10531000202180F83E1000210163704701680C31A4
:1053200051E8002F22F0C00241E80023002BF5D104
:10533000202180F83D10704708B590F83E102229D2
:1053400001D0022008BD82684FF480539A4201D1F7
:10535000016921B1816A9A421BD04AB10AE0026810
:10536000816A5268C2F308020A80816A891C08E0D7
:10537000026972B10268526802F07F020A70816AA3
:10538000491C8162C18D491E0904090CC18503D0E5
:1053900019E002685268F1E70168CA6822F0200249
:1053A000CA600168CA6822F48072CA6001684A69EA
:1053B00022F001024A61202180F83E10016B012990
:1053C00003D0FEF7D3FE002008BD00210163016871
:1053D0000C3151E8002F22F0100241E80023002B8D
:1053E000F5D101680A68D20602D50A6849680091B9
:1053F000818DFEF7CDFBE6E770B5044600680169D4
:10540000E26821F44051114301612169A068E26919
:1054100008436169114308432168CA6849F20C6373
:105420009A430243CA6020684169A26921F440712D
:105430001143416131492068884202D03049884295
:1054400002D1FDF743FE01E0FDF730FEE2690023E3
:10545000192164253226B2F5004F626828D0A0FBDE
:105460000101930F9200FAF70BFF0146B0FBF5F034
:105470006FF01802504301EB800006EB0010B0FB08
:10548000F5F000F0F002B1FBF5F002EB0012B1FB19
:10549000F5F06FF01803584301EB800006EB0010A5
:1054A000B0FBF5F000F00F0021681044886070BD7B
:1054B000A0FB010192185B41FAF7E2FE0146B0FB46
:1054C000F5F00201B1FBF5F06FF01803584301EB62
:1054D000800006EBC000B0FBF5F000F0F80002EB36
:1054E0004002B1FBF5F0584301EB800006EBC00031
:1054F000B0FBF5F000F00700D6E700000010014017
:10550000001401402DE9F041984617460E46044626
:10551000069D27E0681C25D02DB1FDF73DFCA0EBD2
:105520000800A8421ED920680C3050E8001F21F462
:10553000D07140E80012002AF5D12068143050E8FC
:10554000001F21F0010140E80012002AF5D12020BF
:1055500084F83D0084F83E00002084F83C000320DD
:10556000BDE8F0812068006836EA000004D0002021
:10557000B842CFD00020F3E70120F9E710B5044886
:10558000FCF7B2FABDE810400148FEF703BB00008B
:105590005C0F00200B4882B001680A684A680092DC
:1055A000CA6842F01002CA6001684A6942F04002CB
:1055B0004A610168806B6423034A091D02B0FCF74D
:1055C0004DBA00005C0F00200C07002003F094BCD3
:1055D00010B50448FCF788FABDE810400148FEF712
:1055E000D9BA0000A00F00200C4808B501680A686D
:1055F0004A680092CA6842F01002CA6001684A69AB
:1056000042F040024A61122100910168044B806B14
:10561000A3F11802091DFCF7ADF808BDA00F00208A
:105620008807002010B5054C01462046E2689047E7
:1056300020462169BDE8104008470000D400002042
:105640000B4882B001680A684A680092CA6842F052
:105650001002CA6001684A6942F040024A6101686A
:10566000806B6423034A091D02B0FCF7F7B9000000
:10567000D40E0020A0070020704700000B4882B025
:1056800001680A684A680092CA6842F01002CA605B
:1056900001684A6942F040024A610168806BC82390
:1056A000034A091D02B0FCF7D9B90000180F002009
:1056B00004080020704770B5154682680446002A29
:1056C0000BD0607B267B4319B34207D810442A468F
:1056D000FAF707FE607B2844607370BD0520A07058
:1056E0006068401C606070BD10B5044640784FF49F
:1056F0007A7338B1012809D0032816D0042818D0AD
:10570000042008E0627B0D48A16802E0627B0C483F
:10571000A168FEF72DFDA07000206073A07800281E
:1057200002D06068401C606010BD627B0548A168C3
:10573000EFE7627B0448A168EBE700005C0F002004
:10574000A00F0020D40E0020180F002010B5044632
:10575000407838B1012809D0032816D0042818D081
:10576000042008E0627B0D48A16802E0627B0C48DF
:10577000A168FEF757FDA07000206073A078002894
:1057800002D06068401C606010BD627B0548A16863
:10579000EFE7627B0448A168EBE700005C0F0020A4
:1057A000A00F0020D40E0020180F0020FEE703B445
:1057B00001984100009850EAC12018BF04204A0D0A
:1057C00018BF40F0010040F2FF72B2EB515F08BF1A
:1057D00040F00200012808BF052002B07047090709
:1057E000090E002804DB00F1E02080F80014704767
:1057F00000F00F0000F1E02080F8141D7047000059
:1058000070B5C1482DED020B2DED0E8B82B0119DB0
:1058100025F000449FEDBEDB9FEDBFEB84423EDBF5
:10582000A4F140511098A1F17F6108430FD0BC480A
:10583000844202DC28D1109830B39DED100B02B0E9
:10584000BDEC0E8B02B0BDE8704000F069BC9DED70
:10585000100B53EC1D2B51EC100BFAF766FD9DED70
:10586000100B41EC180B53EC1E2B51EC100BFAF7FC
:105870005CFD53EC182BFAF7ACFE41EC100B02B0B8
:10588000BDEC0E8B02B070BD012000F08DFC02B0AB
:10589000BDEC0E8B02B0BDE8704000F055BCA148D5
:1058A0009FEDA18B844256DA9DED100BB4F1795F28
:1058B0000ADA51EC100BFFF77AFF042808BF00F05A
:1058C00053FC9DED100BDAE753EC102B51EC100B51
:1058D000FAF72BFD41EC190B95480621B0EE490A69
:1058E000F0EE690A784400F09FFB53EC192B51EC61
:1058F000100BFAF71AFD41EC1A0B8E48B0EE490A6C
:10590000F0EE690A0421784400F08EFB53EC192B69
:1059100051EC100BFAF709FD53EC182BFAF759FE6E
:1059200041EC100B51EC1A0B53EC102BFAF7F8FE6C
:10593000CDE900019DED000B53EC102B9DED100BFC
:1059400051EC100BFAF7F1FC9DED101B53EC112BF1
:10595000FAF73FFED2E09DED100B51EC100B01F079
:10596000F8FB53EC182BFAF7D8FE9FED730BCDE93B
:10597000000153EC102B9DED000B51EC100BFAF7CE
:10598000D4FC41EC190B6E480621B0EE490AF0EE4A
:10599000690A784400F048FB53EC192B51EC100BCA
:1059A000FAF7C3FC41EC1B0B6648B0EE490AF0EE77
:1059B000690A0421784400F037FB53EC192B51ECB1
:1059C000100BFAF7B2FC53EC182BFAF702FE41EC7D
:1059D0001C0B51EC190B05F094FB41EC180B5A48C9
:1059E0009FED5BABA04222DC53EC1C2B51EC1B0B5C
:1059F000FAF796FECDE900019DED000B51EC180B76
:105A000053EC102BFAF791FC53EC182BFAF7E1FD4D
:105A100053EC1A2BFAF789FC53EC1D2BFAF77AFE9C
:105A200053EC1E2BFAF779FE41EC100B5FE08DED85
:105A3000008B002000909DED000B51EC180B53ECF7
:105A4000102BFAF7C6FD9DED000B41EC1E0B53EC3D
:105A5000102B51EC100BFAF768FC53EC192BFAF7EA
:105A60005CFE53EC1E2BFAF75BFE41EC190B53EC7A
:105A70001C2B51EC1B0BFAF753FE41EC1B0B53ECA8
:105A80001A2B51EC190BFAF750FC53EC1D2BFAF7BB
:105A900044FE41EC190B53EC1A2B51EC180BFAF79E
:105AA00044FC53EC1B2BFAF740FC53EC192BFAF790
:105AB00031FE9DED000B41EC180B53EC1A2B51EC11
:105AC000100BFAF732FC9FED249B53EC192BFAF7DD
:105AD00024FE41EC100B51EC180B53EC102BFAF791
